:020000040000FA
:100000008806002041010000490100004B0100006A
:100010004D0100004F0100005101000000000000F0
:10002000000000000000000000000000530100007C
:1000300055010000000000005701000059010000B8
:100040005B0100005B0100005B0100005B01000040
:100050005B0100005B0100005B0100005B01000030
:100060005B0100005B0100005B0100005B01000020
:100070005B0100005B0100005B0100005B01000010
:100080005B0100005B0100005B0100005B01000000
:100090005B0100005B0100005B0100005B010000F0
:1000A0005B0100005B0100005B0100005B010000E0
:1000B0005B0100005B0100005B0100005B010000D0
:1000C00000F002F800F02CF80AA090E8000C82443E
:1000D0008344AAF10107DA4501D100F021F8AFF21B
:1000E000090EBAE80F0013F0010F18BFFB1A43F016
:1000F00001031847280B0000380B000000230024E0
:1001000000250026103A28BF78C1FBD8520728BF27
:1001100030C148BF0B6070471FB51FBD10B510BD83
:1001200000F0E3F81146FFF7F7FF00F021FB00F0C5
:1001300001F903B4FFF7F2FF03BC00F009F9000076
:100140000948804709480047FEE7FEE7FEE7FEE76B
:10015000FEE7FEE7FEE7FEE7FEE7FEE704480549A7
:10016000054A064B70470000B5030000C1000000BF
:1001700088000020880600208802002088020020D5
:1001800053EA020C23D010B54C1084EA530404D572
:100190004042C1F1000138BF491E1B4204D5524202
:1001A000C3F1000338BF5B1E00F027F814F0804F46
:1001B00004D04042C1F1000138BF491E14F0004F85
:1001C00004D05242C3F1000338BF5B1E10BD13B50B
:1001D00040424FF0000070EB0104B8BF012001F075
:1001E000004100281CBF6FF000414FF0FF30AFF31B
:1001F00000801CBD70477047704753EA020C00F046
:1002000069802DE9F04B4FF00006002B1FBFB3FAB9
:1002100083F503FA05F424FA05F65E4012BF16438F
:10022000B2FA82F502FA05F4C5F120051EBF22FAE2
:1002300005FC44EA0C04203556EA044C4FEA144409
:1002400018BF641C4FF000084FF00009904271EB9A
:10025000030C39D3002919BFB1FA81F701FA07F667
:10026000B0FA80F700FA07F6C7F120071EBF20FAA0
:1002700007FC46EA0C062037B6FBF4FCA7EB0507A3
:10028000103F07F01F0BCBF120062CFA06F60CFAF4
:100290000BFB44BFB3460026202FA4BF5E464FF0A1
:1002A000000B5BEA060C08BF4FF0010B19EB0B09C2
:1002B00048EB0608ABFB027C06FB02CC0BFB03CC35
:1002C000C01B71EB0C01C1E70B4602464146484694
:1002D000BDE8F08B13B5084318BF4FF0FF3001465F
:1002E000AFF30080BDE81C407047754600F02CF865
:1002F000AE4605006946534620F00700854618B013
:1003000020B5FFF72BFFBDE820404FF000064FF06F
:1003100000074FF000084FF0000BAC46ACE8C009F6
:10032000ACE8C009ACE8C009ACE8C00921F007019D
:100330008D46704710B50446AFF300802046BDE8F7
:100340001040FFF7F6BE0000004870470000002094
:1003500001491820ABBEFEE72600020070470000EE
:1003600042F20000C4F200000188C1F3C10242F26F
:100370000041C0F2F401DFE802F00D0205084FF47D
:10038000004107E04FF4004104E040F26001C2F296
:100390000001096840F28002C2F200021160008888
:1003A00000F0070021FA00F040F28401C2F20001DF
:1003B0000860704780B542F20000C4F200000021DE
:1003C000018080F81014FFF7CBFF80BD2DE9F043CA
:1003D00081B040F27C01C2F200010A68B2F5FA3144
:1003E0004FEAE272A1FB019362F1000E01FB0E32B3
:1003F00040F26803C2F20003B3F9003001FB0E2C97
:10040000A9FB0386DA1709FB026240F26606C2F214
:100410000006B6F900600CFB0322A1FB0675F41779
:1004200001FB045440F264054FEA1823C2F20005B0
:1004300043EA02632D880EFB064413EB0733A3FB4C
:1004400005364FEA043343EA175343EB222202F501
:10045000004202FB05635A1042EAE374002C7AD092
:1004600040F26E04C2F20004B4F90040C0F58010FE
:10047000A9FB0486E71709FB076640F26C07C2F286
:100480000007B7F900700CFB046600F0004444EA72
:100490005004D8EBC070A1FB075964EB0608FE17A7
:1004A00001FB069140F26A060EFB0711C2F200063C
:1004B0004904B0EB4540B6F9007041EAD53140F649
:1004C000354C68EB0101A0FB0C04A1EBC70101FB5B
:1004D0000C41DB17FFF754FE420B42EAC14240F2E7
:1004E0007406A2FB0237C2F200064D13B6F9006093
:1004F00002FB0577A3FB06C402FB0572F71703FB9B
:10050000074340F27207C2F20007B7F9007002FB1E
:100510000632A0FB0754FB1700FB03434FEA5C6461
:1005200001FB0733561644EAC212EF0C47EA433781
:10053000801840F270027141C019C2F2000241EB12
:10054000D341000AB2F9002040EA016000EB02103A
:1005500001B0BDE8F083002001B0BDE8F0830000E9
:1005600040F27602C2F200021288C110A1EB4201F1
:10057000C2EB201040F27A0240F27803C2F200028D
:10058000C2F200034043B2F90020B3F90030000B7F
:1005900050435943801300EBE12101EB810040F20D
:1005A0007C028030C2F2000200121160704700002D
:1005B00081B070B14FF4C86102E000BF013808D0CB
:1005C000009100BF009A002AF8D0009A013A0092E8
:1005D000F8E701B07047000046F23000C4F20000B6
:1005E000018821F4706101F5A061018043F20000EF
:1005F000C4F2000042F2277181840121018070471A
:10060000B0B543F20402C4F2000213884B1E93817A
:100610004FF0ED03137516DB47F6601C4FF0000E2C
:10062000CFF6FE7C634600BF1488E50621D424077C
:1006300002D40133F8D31FE0938800F80E300EF196
:10064000010E8E45EED110884FF0000CC0054FF022
:1006500000010CD447F66010CFF6FE70431C4CF13D
:100660000001834203D31088C0051846F6D54842DE
:10067000B0BD6FF00100B0BD4FF0FF30B0BD000065
:1006800010B582B00446D0208DF807000DF10700A8
:10069000012100F01DF808B102B010BD2046012173
:1006A000FFF7AEFF02B010BDB0B582B00D468DF8B9
:1006B00007000DF107000121144600F009F808B108
:1006C00002B0B0BD28462146FFF79AFF02B0B0BD88
:1006D00010B543F2040CC4F2000CBCF80020012950
:1006E0000BDB0A464FF0000318BF0222C45C013343
:1006F0009A42ACF80840F9D100E0002347F6601EAA
:10070000CFF6FE7EEC228B428CF8142010DA724673
:10071000BCF8004014F0900F17D1640702D40132E6
:10072000F6D30FE0C25C01338B42ACF80820EED167
:10073000BCF8000010F0900F07D1C00508D41EF1DE
:10074000010EF5D34FF0FF3010BD6FF0010010BD6A
:10075000002010BD80B582B08DF806008DF807101E
:100760000DF106000221FFF7B3FF02B080BD0000CB
:1007700082B042F20000C4F20000018841F00101A1
:1007800021F00601018000F081F9FFF725FF3220FA
:10079000FFF70EFF42A000F099F90DF10700FFF7F7
:1007A0006FFF70B1023040F6953040F66231C0F212
:1007B0000000C0F2000108BF084600F087F900BF42
:1007C000FEE743A000F082F99DF80740204600F0C4
:1007D00047F942A000F07AF9582C08D0602C1ABFD3
:1007E00040F63430C0F200003DA000F06FF900F098
:1007F000A3F830B140F6E630C0F2000000F066F930
:10080000FEE7F4202721FFF7A5FFF5200021FFF7E1
:10081000A1FF40F6CB360DF10104C0F200060FF245
:10082000FC080FF200190FF2081A05E000F04EF96B
:100830004FF47A70FFF7BCFEF72021460622FFF73F
:1008400033FF00283046F1D19DF802109DF80100D9
:1008500009019DF8032041EA00309DF805109DF83C
:10086000043040EA121708019DF8061040EA0330F0
:1008700040EA1110FFF774FE05463846FFF7A6FD63
:10088000070A404600F022F9284600F0B7F848462B
:1008900000F01CF9384600F027F95046C6E700BFC3
:1008A0000D0A3D3D3D2041447543524631303120D3
:1008B0002B20424D50323830202862617265207200
:1008C0006567697374657229203D3D3D0D0A00001E
:1008D000434849505F4944203D2000000D0A000074
:1008E0006E6F74653A2030783630202D3E20746863
:1008F0006973206973206120424D453238302C20C5
:100900006E6F7420424D503238302028636F6E7401
:10091000696E75696E67290D0A00000054203D203C
:1009200000000000204320202050203D2000000037
:100930002050610D0A00000080B586B0694688200D
:100940001822FFF7B1FE08B106B080BDBDF8000067
:1009500040F27601C2F200010880BDF8020040F2C8
:100960007801C2F200010880BDF8040040F27A016B
:10097000C2F200010880BDF8060040F26401C2F234
:1009800000010880BDF8080040F26601C2F20001D3
:100990000880BDF80A0040F26801C2F20001088038
:1009A000BDF80C0040F26A01C2F200010880BDF8F7
:1009B0000E0040F26C01C2F200010880BDF8100088
:1009C00040F26E01C2F200010880BDF8120040F250
:1009D0007001C2F200010880BDF8140040F27201FB
:1009E000C2F200010880BDF8160040F27401C2F2A4
:1009F00000010880002006B080BD0000B0B50446AC
:100A0000B0F1FF3F03DC2D2000F056F8644248F2BD
:100A10001F50C5F2EB1084FB0001481100EBD175AB
:100A2000284600F061F82E2000F046F8642005FB0F
:100A300010444CF6CD40CCF6CC40A4FB0001302055
:100A400000EBD100C0B2CD0800F036F805EB850010
:100A5000A4EB400040F03000C0B200F02DF8B0BD73
:100A6000B0B50446302000F027F8782000F024F8D4
:100A700040F60A452009C0F20005285C00F01CF889
:100A800004F00F00285C00F017F8B0BD46F230000B
:100A9000C4F200000188342241F0090121F006016E
:100AA000018045F20400C4F200000321017200211C
:100AB000018482840170704745F20001C4F2000194
:100AC0000A7D9206FCD508707047000010B50178C9
:100AD000002908BF10BD441EC8B2FFF7EDFFA17882
:100AE00001340029F8D110BDB0B584B0E8B14CF69E
:100AF000CD420024CCF6CC420DF10601A0FB02351C
:100B0000EB0803EB8305A0EB450545F030050D55DB
:100B1000013409281846F1D84D1E00BF285DFFF7A3
:100B2000CBFF013CFAD104B0B0BD3020FFF7C4FFC9
:100B300004B0B0BD7761726E696E673A20756E65FC
:100B40007870656374656420636869702049442027
:100B50002865787065637465642030783538290DB0
:100B60000A004552524F523A204E41434B20726583
:100B70006164696E67206368697020494420286E4B
:100B80006F2064657669636520617420307837363C
:100B90003F290D0A004552524F523A204932432014
:100BA00074696D656F75742072656164696E672024
:100BB00063686970204944202870756C6C2D7570CD
:100BC000732F70696E733F290D0A004552524F52C0
:100BD0003A2062757273742072656164206661697F
:100BE0006C65640D0A004552524F523A20666169A5
:100BF0006C656420746F20726561642063616C6948
:100C000062726174696F6E0D0A00303132333435AF
:100C10003637383941424344454600002C0C000029
:0C0C20000000002088060000FC0000001E
:0400000500000141B5
:00000001FF
